:020000040000FA
:040000008031212802
:100008007E1480312230FB007B084001A30081313F
:100018006D218031FB0040012308860087017B08A1
:1000280081002308F0000030F1000130F2000030B8
:10003800F300813129217E10090080312328FC0139
:100048007E10400181314B294001AE01A71F39289C
:10005800A409A509A609A709A40A0319A50A031949
:10006800A60A0319A70AAE01AE0AAB1F4A28A809B7
:10007800A909AA09AB09A80A0319A90A0319AA0A0E
:100088000319AB0A0130AC002C08AE060030B200F0
:100098000030B1000030B0000030AF00270826045F
:1000A8002504240403199328AD01AD0AA71B682869
:1000B8000130A435A50DA60DA70D890B5D280130CB
:1000C800AC002C08AD075A280130AF35B00DB10D82
:1000D800B20D890B692827082B02031D7D282608E5
:1000E8002A02031D7D2825082902031D7D282408CE
:1000F8002802031C88282408A8022508A93B2608EA
:10010800AA3B2708AB3B2F140130A736A60CA50C39
:10011800A40C890B89280130AD02031D68282E081C
:100128000319A128AF09B009B109B209AF0A031927
:10013800B00A0319B10A0319B20A3208A700310834
:10014800A6003008A5002F08A40008007E01CE01F3
:1001580014307D01CB000F307E01A500400133082B
:10016800B7003408B8003508B9003608BA000430BA
:10017800B735B80DB90DBA0D890BBC283A08A700D8
:100188003908A6003808A5003708A4003308BB00C2
:100198003408BC003508BD003608BE000430BB3545
:1001A800BC0DBD0DBE0D890BD3280030BF004830F3
:1001B800C000E830C1000130C2003B08BF023C0863
:1001C800C03B3D08C13B3E08C23B4208AB0041086A
:1001D800AA004008A9003F08A80080312820400153
:1001E8002508C8002408C700470842019B000B17D0
:1001F8008B17A6309E0090309D009F014E019916E6
:1002080008004001AB01AC01AD01AE012E08803AF7
:10021800A8002708803A2802031D142926082D0261
:100228000318080042019E1C1629400124082D07C6
:10023800840025082E3D8500000842019A000130FF
:100248004001AD070030AE3D0A29F501F601F7017E
:10025800F801F901FA017A08803AF4007308803A43
:100268007402031D39297208790203180800420133
:100278009E1C3B2970087907840071087A3D850027
:1002880000089A000130F9070030FA3D2F29103094
:100298004001940092010030B6000130B500C23030
:1002A800B4000030B3008031AA20813167304001AA
:1002B800A4008130A5000530A6000030A7008131D8
:1002C800052180312128483465346C346C346F340E
:0E02D80000344E018F1E6D29420119080800E6
:020000040001F9
:0A000E008C3FFF3FDF3FFF3FFF3F45
:00000001FF
