:020000040000FA
:0400000080315C28C7
:100008007E1480314E010D1C5A289231EB2280312A
:1000180071084101E2007008E1003B304001A30093
:10002800A030A2002830A1000B30A00041016108D7
:10003800F0006208F100F201F301003097316B27FC
:10004800803173084001A7007208A6007108A50056
:100058007008A4008D31D425803140012308410166
:10006800E000400122084101DF0040012108410170
:10007800DE00400120084101DD0000304001EA00B7
:100088009830EB00410160084001EF0041015F0832
:100098004001EE0041015E084001ED0041015D08AC
:1000A8004001EC00933107234E010D107E1009002A
:1000B80080315E28E3308400003085000C309231B6
:1000C800E52280314201C501C601C701C801A0303F
:1000D80084000130850050309231E5227E104001C5
:1000E80093314A2B4101BE00BA01BB0140014908C6
:1000F8004101D000400148084101CF0040014708B4
:100108004101CE00400146084101CD0050084001A0
:10011800BD0041014F084001BC0041014E084001AB
:10012800BB0041014D084001BA000030C100003059
:10013800C0000030BF000030BE0087318327803107
:100148000318BF2801304101BA000030BB00500835
:10015800F3004F08F2004E08F1004D08F00092310C
:10016800F322803173084101D0007208CF00710872
:10017800CE007008CD004101D301D4016A08C10046
:100188006908C0003A083B04031DCC286D1DE5280A
:100198003A083B04031DD2282B30D3282D30A40065
:1001A8000030A50024084001CB004B084301A00003
:1001B80001304101D3070030D43DFF30C007FF3084
:1001C800C13D5008F3004F08F2004E08F1004D08F9
:1001D800F00096317126803170037104031D3C29AB
:1001E80040014A08BF3ECB00FF3003180030CC0066
:1001F80000304C021A3003194B020318052901304C
:1002080006290030CD00CE014D084101A60040016D
:100218004E084101A70026082704031917290730AB
:10022800F00098301A290F30F0009830F100530888
:10023800A03E9331A1238031FD304101C007FF303A
:10024800C13DA0304001CB004B08A400410141084A
:100258004001A600410140084001A50041013E08B7
:100268009531112540012508C7002408C60008005B
:1002780041015008F3004F08F2004E08F1004D0804
:10028800F00096317126803170087104031D94299D
:1002980040014A08BF3ECB00FF3003180030CC00B5
:1002A80000304C021A3003194B0203185D29013043
:1002B8005E290030CD00CE014D084101A800400163
:1002C8004E084101A9002808290403196F290B3099
:1002D800F000983072291330F0009830F10053087C
:1002E800A03E9331A1238031FD304101C007FF308A
:1002F800C13DA0304001CB004B08A400410141089A
:100308004001A600410140084001A50041013E0806
:100318009531112540012508C7002408C6000800AA
:100328003F304101D8008030D7000030D60000307F
:10033800D500D101D2015008F3004F08F2004E0851
:10034800F1004D08F0000030F7000030F6000030F2
:10035800F5000030F40094317B248031031CE5293A
:10036800652A41304001A3002030A2000030A100DE
:100378000030A000410158084001A700410157087A
:100388004001A600410156084001A5004101550859
:100398004001A4008D31D42580314001230841015A
:1003A800D800400122084101D7004001210841013D
:1003B800D600400120084101D5000130D1070030A6
:1003C800D23D410150084001BD0041014F084001A4
:1003D800BC0041014E084001BB0041014D084001ED
:1003E800BA004130A3002030A2000030A100003044
:1003F800A000410158084001A700410157084001E9
:10040800A600410156084001A500410155084001D8
:10041800A4008D31D425803140012308C100220871
:10042800C0002108BF002008BE0087318327803123
:10043800031C402AB5294130F3002030F200003077
:10044800F1000030F00041015808F7005708F600A5
:100458005608F5005508F4008831D8208031730813
:100468004101D8007208D7007108D6007008D5007D
:10047800FF30D107FF30D23D410150084001BD0097
:1004880041014F084001BC0041014E084001BB003A
:1004980041014D084001BA00410158084001C1001E
:1004A800410157084001C000410156084001BF0002
:1004B800410155084001BE00873183278031031C64
:1004C8001F2A40014A08CB00CC014B08F6004C0813
:1004D800F7009331C023803176084001CD004D08E4
:1004E8004101C20042084001CB004B084101BF0056
:1004F80067304206031D9B2A6B086C04031D882A7B
:100508000130EB000030EC006C08803A4001CB0071
:1005180080304B02031D932A013041016B020318FE
:100528009D2A06304101BC000030BD00A22AEC1B08
:10053800952A41016C08BD006B08BC006730420673
:10054800031DD52A5208803A4001CB007F304B0268
:10055800031DB12AFC3041015102031CCF2A41017D
:100568003C08FF3E4001CB00FF3041013D3D4001CA
:10057800CC004C08803ACD0041015208803A400135
:100588004D02031DCB2A4101510840014B02031CB7
:10059800CF2A6630D02A65304001CB004B08410194
:1005A800BF003D08B5003C08B40067304206031D93
:1005B800E22A66303F060319D21FE62A0130B40743
:1005C8000030B53D66303F06031DFE2AD21FF62ACD
:1005D8003F30D8008030D7000030D6000030D5003A
:1005E800D101D201673042060319FE2A5108B40727
:1005F8005208B53DCB01CC015008C6004F08C500D4
:100608004E08C4004D08C3005808A3005708A200AC
:100618005608A1005508A0004C08803A4001CB00BC
:1006280041013508803A40014B02031D1E2B410150
:1006380034084B020318CF2B41015808F300570820
:10064800F2005608F1005508F0004608F700450882
:10065800F6004408F5004308F4008831D8208031BA
:1006680073084001B0007208AF007108AE0070084E
:10067800AD008631AB268031400130084101CA0007
:1006880040012F084101C90040012E084101C8005E
:1006980040012D084101C7004A08F3004908F2004B
:1006A8004808F1004708F00096310C26803171089F
:1006B8004101B9007008B8004A084001A70041018B
:1006C80049084001A600410148084001A500410130
:1006D80047084001A400410158084001A300410116
:1006E80057084001A200410156084001A1004101FC
:1006F80055084001A0008D31D425803140012308E0
:10070800BD002208BC002108BB002008BA00410136
:1007180046084001C100410145084001C0004101AF
:1007280044084001BF00410143084001BE00933125
:100738008223803140013D084101C60040013C0848
:100748004101C50040013B084101C40040013A088D
:100758004101C3004130F3002030F2000030F100C5
:100768000030F0005808F7005708F6005608F50062
:100778005508F4008831D820803173084101D80029
:100788007208D7007108D6007008D5000130CB0771
:100798000030CC3D102B40304001A300A030A20017
:1007A8000030A1000030A000410158084001A70016
:1007B800410157084001A600410156084001A50023
:1007C800410155084001A4008D31D42580314001F4
:1007D80023084101CA00400122084101C900400123
:1007E80021084101C800400120084101C70046080E
:1007F8004001BD00410145084001BC0041014408D9
:100808004001BB00410143084001BA0041014A08C8
:100818004001C100410149084001C00041014808A8
:100828004001BF00410147084001BE0087318327CE
:1008380080310318222C003041013C2C410146082C
:10084800F3004508F2004408F1004308F0004A08A4
:10085800F7004908F6004808F5004708F400943105
:100868007B248031031C432C41013818432C003071
:10087800CA000030C9000030C8000030C70041017C
:100888004A08F3004908F2004808F1004708F00058
:100898005008F7004F08F6004E08F5004D08F40020
:1008A8008B31EB23803173084101C6007208C50003
:1008B8007108C4007008C3002308D8002208D700B4
:1008C8002108D6002008D50065303F060319712C91
:1008D8005208B7005108B600732CB601B701B2012F
:1008E800B301B001B101CB01CC018E2D41015808F3
:1008F800F3005708F2005608F1005508F0004608C2
:10090800F7004508F6004408F5004308F40088316C
:10091800D820803173084001B0007208AF00710818
:10092800AE007008AD008631AB268031400130083A
:100938004101CA0040012F084101C90040012E08A9
:100948004101C80040012D084101C7004A08F300D1
:100958004908F2004808F1004708F00096310C26D3
:10096800803171084101B9007008B8006D1ACA2CAD
:1009780038083904031DCA2C673042060319B71F0B
:10098800CA2C0130B0070030B13D1C2D32083304A9
:100998000319B71FE82C2E304001CB004101530842
:1009A800A03E86000130870040014B0881000130DD
:1009B8004101D3070030D43DFF30C007FF30C13DAF
:1009C8000130B2000030B300300831040319062D9D
:1009D80030304001CB0041015308A03E8600013071
:1009E800870040014B08810001304101D3070030E6
:1009F800D43DFF30C007FF30C13DFF30B007FF30A6
:100A0800B13DE82C3808303E4001CB004101530885
:100A1800A03E86000130870040014B08810001306C
:100A28004101D3070030D43DFF30C007FF30C13D3E
:100A38004A084001A700410149084001A6004101B8
:100A480048084001A500410147084001A4004101B0
:100A580058084001A300410157084001A200410184
:100A680056084001A100410155084001A0008D3100
:100A7800D425803140012308BD002208BC0021088C
:100A8800BB002008BA00410146084001C1004101ED
:100A980045084001C000410144084001BF00410130
:100AA80043084001BE0093318223803140013D0854
:100AB8004101C60040013C084101C50040013B0816
:100AC8004101C40040013A084101C3004130F3002C
:100AD8002030F2000030F1000030F0005808F70034
:100AE8005708F6005608F5005508F4008831D82054
:100AF800803173084101D8007208D7007108D60008
:100B08007008D500FF30B607FF30B73D0130CB077E
:100B18000030CC3D4C08803A4001CB0041013508FB
:100B2800803A40014B02031D9C2D410134084B02C1
:100B38000318AC2D41015408803A4001CB008030A5
:100B48004B02031DAA2D4B3041015302031C7A2C82
:100B580041013208330403196D1EC32D2E304001A4
:100B6800CB0041015308A03E8600013087004001B8
:100B78004B08810001304101D3070030D43D5308B0
:100B8800A03E860001308700810165303F06031DC5
:100B9800942E4F30CB000030CC004B08A03E86008E
:100BA800013087008101BA01BB01D21FE42D013059
:100BB800BA000030BB00D109D209D10A0319D20A00
:100BC8000230BC000030BD00510852040319232E26
:100BD800FF304101CB07FF30CC3D0A30F000003038
:100BE800F1005208F3005108F200943136248031A4
:100BF8007008303E4001CB0041014B08A03E860002
:100C08000130870040014B0881000A30F0000030B5
:100C1800F10041015208F3005108F20095316125B5
:100C2800803171084101D2007008D100FF30BC0743
:100C3800FF30BD3DFF30C007FF30C13DE82D3D0806
:100C4800803A4001CB0080304B02031D2E2E01302C
:100C580041013C020318EC2DFF304101CB07FF3066
:100C6800CC3D3A083B04031D3B2E2B303C2E2D3047
:100C7800AA000030AB002A084001CB0041014B0814
:100C8800A03E86000130870040014B088100FF30FC
:100C98004101C007FF30C13DFF30CB07FF30CC3DDD
:100CA80040014A08BF3ECB00FF3003180030CC009B
:100CB80000304C021A3003194B020318652E01301C
:100CC800662E0030CD00CE014D084101AE00400136
:100CD8004E084101AF002E082F04031D752E653004
:100CE800762E4530AC000030AD002C084001CB001A
:100CF80041014B08A03E86000130870040014B08A7
:100D08008100FF304101C007FF30C13D4B08A03EC4
:100D1800F0000130F1005308A03E9331A123803147
:100D2800A0304001CB004B08A4004101410840011C
:100D3800A600410140084001A50041013E08953147
:100D4800112540012508C7002408C60008004201F3
:100D580048084001C000420147084001BF00420165
:100D680046084001BE00420145084001BD00300868
:100D7800C0002F08BF002E08BE002D08BD003D088A
:100D8800B1003E08B2003F08B3004008B400173075
:100D9800B436B30CB20CB10C890BCC2EFF30310534
:100DA800B50000303205B6003508813EBB00FF3083
:100DB800363DBC003C08803AB10080303102031D4A
:100DC800E72E17303B02031808004001BC1B442FD4
:100DD800FF30B100FF30B2007F30B3000030B40004
:100DE8003B0AFA2EB437B30CB20CB10C890BF62EB1
:100DF8003408BA003308B9003208B8003108B7001F
:100E08003D083705B1003E083805B2003F083905EE
:100E1800B30040083A05B4003408330432043104FE
:100E2800031908003D08B1003E08B2003F08B300AE
:100E38004008B4001F30B436B30CB20CB10C890BA7
:100E48001F2F34083304320431040319332F3708B1
:100E5800BD073808BE3D3908BF3D3A08C03D3709CF
:100E6800B1003809B2003909B3003A09B4003108B1
:100E7800BD053208BE053308BF053408C0057A2F02
:100E88003D08B1003E08B2003F08B3004008B40076
:100E98001F30B436B30CB20CB10C890B4D2F34088B
:100EA800330432043104031D5D2F0030C0000030CC
:100EB800752F3D08B1003E08B2003F08B300400856
:100EC800B4000130B135B20DB30DB40D890B662FE6
:100ED800340833043204310403197A2FBF30C000B8
:100EE8008030BF000030BE000030BD004008B000B8
:100EF8003F08AF003E08AE003D08AD0008000030D6
:100F080040013A05C20000303B05C30080303C0573
:100F1800C4007F303D05C50045084404430442042D
:100F2800031D9E2F0030BD000030BC000030BB0008
:100F38000030BA0000303E05C20000303F05C30053
:100F480080304005C4007F304105C5004508440491
:100F580043044204031DB82F0030C1000030C00014
:100F68000030BF000030BE00BD1FD22F0030C200CD
:100F78000030C3000030C4008030C5003A08C20207
:100F88003B08C33B3C08C43B3D08C53B4508BD0086
:100F98004408BC004308BB004208BA00C11FEC2F3C
:100FA8000030C2000030C3000030C4008030C500EB
:100FB8003E08C2023F08C33B4008C43B4108C53B4A
:100FC8004508C1004408C0004308BF004208BE00ED
:100FD8008030BD068030C10641083D02031D08006F
:100FE80040083C02031D08003F083B02031D08009F
:060FF8003E083A02080069
:101008007308031D7308031D0D2871089231FC2213
:1010180008007308033E86008701160001040319BF
:1010280030287308033E86008701403FF400413FA3
:10103800F500730A86008701403FF600413FF7003C
:101048007708803AF8007508803A7802031D2E2840
:101058007408760203180800730A860087010130B5
:10106800810741310318810A0800420120088400E1
:10107800210885000008A2002208A4002108A30076
:101088002008A20001302207840023080318230A3D
:1010980085000008D03EA600FF3003180030A700E6
:1010A8004E010D1017140B178B17AE280130A20034
:1010B800260A5F28A235890B5E282208A300230888
:1010C8004001920401304201A200260A6C28A23590
:1010D800890B6B282208A30023087E01B80401307D
:1010E8004201A200260A7928A235890B782822080D
:1010F800A30023084001930401304201A200260AFC
:101108008628A235890B85282208A30023087E019A
:10111800C30401304201A200260A9328A235890B94
:1011280092282208A30023084001940401304201B8
:10113800A200260AA028A235890B9F282208A3000E
:1011480023087E01CE0442012608103EA200220890
:10115800A500C22842012408A200A3012308003ADE
:101168000319B728C2282208413A03195A28033A12
:1011780003197328013A03198D28C2282508A200EB
:101188000130A235FF3E031DC5282235A3002308E0
:1011980041019D04A0309E001D14A0300032890B2F
:1011A800D22841019D14080077088039F800780892
:1011B8004001A4007735F8007808AB00F61B2B1423
:1011C8002B080319F5282B0A031DF2280030F70015
:1011D8000030F6000030F5000030F400F617F70193
:1011E800FD280030F7000030F6000030F500003030
:1011F800F40073088039F8007808A4067335F800FD
:101208007808AC00F21B2C142C08031919292C0A95
:10121800031D16290030F3000030F2000030F10001
:101228000030F000F217F30121290030F3000030FC
:10123800F2000030F1000030F0007308720471040D
:101248007004031D40290030F7000030F60000301C
:10125800F5000030F4008030F6047F30F7042408ED
:10126800F8007808F7047708F3007608F2007508A4
:10127800F1007408F00008002B08031D4C29003009
:10128800F3000030F2000030F1000030F0000800F8
:101298002B08F800F9017908FB002C087802FA00FD
:1012A800031CFB037A087F3EA50000307B3DA600A7
:1012B8007708A3007608A2007508A1007408A000AA
:1012C8000030F7000030F6000030F5000030F40080
:1012D8000030AA000030A9000030A8000030A700A4
:1012E800AC011A302C020318B1292C0803199329D0
:1012F8000130A035A10DA20DA30D890B7D29013068
:10130800F435F50DF60DF70D890B8429AA1B741415
:101318000130A735A80DA90DAA0D890B8D297308D1
:101328002302031DA12972082202031DA1297108A5
:101338002102031DA12970082002031CAC292A17C9
:101348007008A0027108A13B7208A23B7308A33B76
:101358000130F8007808AC07752923082204210415
:101368002004031D2714F61BCE290130F435F50D92
:10137800F60DF70D890BBA29AA1B74140130A7358D
:10138800A80DA90DAA0D890BC329FF30A507FF30A9
:10139800A63DB729AC01AA1FE729FF302705F800A9
:1013A800FF302805F900FF302905FA007F302A05AB
:1013B800FB007B087A047904780403197418E5297A
:1013C800E729AC01AC0A2C080319102A0130F407EC
:1013D8000030F53D0030F63D0030F73D771C102A0F
:1013E8007408F8007508F9007608FA007708FB0019
:1013F8000130FC00FB37FA0CF90CF80CFC0BFE2949
:101408007B08F7007A08F6007908F5007808F400F8
:101418000130A5070030A63D2608803AF800803044
:101428007802031D192AFF302502031C282AFF30E1
:101438004001A5000030A6000030F7000030F6009B
:101448000030F5000030F40040012608803AF8002A
:1014580080307802031D322A013025020318402A01
:101468004001A501A6010030F7000030F600003069
:10147800F5000030F400A40140012508F8007808C0
:10148800AB002B1C492AF6174D2A7F30F800780844
:10149800F6052B36F8007808F70033294001E100FB
:1014A8004F0886008701403FD100413FD2005108D4
:1014B8008400520885001200253A031DC82B4F08E6
:1014C800860087010130810741310318810A4101F3
:1014D800E901EA01ED01EE01FF30EB00FF30EC001D
:1014E80040014F0886008701403FD100413FD200AC
:1014F80051088400520885000008D300D40153081D
:10150800F6005408F7009331C0238A317608400169
:10151800D5005508DD005D080319CF2A4F0886005D
:101528008701403FD100413FD2000130510784007C
:1015380052080318520A85000008D300D401530842
:10154800F6005408F7009331C0238A317608400129
:10155800D5005508DE005E080319CF2A4F0886001B
:101568008701403FD100413FD2000230510784003B
:1015780052080318520A85000008D300D401530802
:10158800F6005408F7009331C0238A3176084001E9
:10159800D5005508DF0066305D06031D0F2B4F0888
:1015A80086008701403FD100413FD20051088400A6
:1015B800520885000008D3005308E0004F08860051
:1015C80087010130810741310318810A50088600DC
:1015D800870101088400850104308107003FD90094
:1015E800013FDA00023FDB00033FDC005C08C90072
:1015F8005B08C8005A08C7005908C6006008D1002F
:101608005108CA0061088031762040014708D0009F
:101618004608CF0008001730F0009830F10002307B
:10162800F2000030F3005D309431C3248A31700831
:101638007104031D952B40014F0886008701403F28
:10164800D100413FD20001305107840052080318ED
:10165800520A85000008D3005308E0004F088600AE
:101668008701403FD100413FD20051088400520811
:1016780085000008BF3ED300FF3003180030D400B7
:10168800003054021A300319530203184D2B01304D
:101698004E2B0030D500D6015508D7005608D80083
:1016A800570858040319682B500886008701010859
:1016B8008400850104308107003FD900013FDA002A
:1016C800023FDB00033F772B5008860087010108A3
:1016D8008400850104308107003FD900013FDA000A
:1016E800023FDB00033FDC004F0886008701023021
:1016F800810741310318810A5C08C9005B08C800EA
:101708005A08C7005908C6006008D1005108CA0025
:1017180061088031762040014708D0004608CF0094
:10172800080040014F0886008701403FD100413F33
:10173800D20051088400520885001200253A031D82
:10174800BD2B4F08860087010130810741310318FE
:10175800810A2530F1000030F2006108D1005108FB
:10176800F3008831042001304001CF000030D00060
:1017780008004F08860087010130810741310318AE
:10178800810ACF01D00108004F0886008701403F39
:10179800D100413FD200510884005208850000085A
:1017A800D300D4015308F1005408F2006108D500B1
:1017B8005508F300883104208A3140014F0886001B
:1017C80087010130810741310318810AB72B73085B
:1017D80080394001A0002008F8007335A0002008D7
:1017E800FA00F21B7A147A080319082C7A0A031DE6
:1017F800052C0030F3000030F2000030F10000301A
:10180800F000F217F301102C0030F3000030F20062
:101818000030F1000030F00077088039A00020087F
:10182800F90079087806031D78177735A000200895
:10183800F900F61B791479080319302C790A031D6D
:101848002D2C0030F7000030F6000030F500003095
:10185800F400F617F701382C0030F7000030F600D6
:101868000030F5000030F4007A08790203187E2C65
:10187800781F422C8030A0002008F8067A08A000C3
:101888002008FB007908A0002008FA007B08A000C7
:101898002008F9007008A0002008FB007408A000C8
:1018A8002008F0007B08A0002008F4007108A000C0
:1018B8002008FB007508A0002008F1007B08A000A4
:1018C8002008F5007208A0002008FB007608A00098
:1018D8002008F2007B08A0002008F6007308A0008A
:1018E8002008FB007708A0002008F3007B08A00070
:1018F8002008F700FB017908A000A1012108A30036
:101908007A082002A200031CA3032308803AA4003B
:1019180080302402031D922C1A302202031CC82C8A
:10192800730872047104700403199C2C01309D2CF7
:1019380000304001A0002008FB000030F300003018
:10194800F2000030F1000030F0007908A000200813
:10195800FA00CC2C7B1CB72C7B3601384001A00048
:101968002008FB00B92C0310FB0C7018FB17013082
:101978004001A000F337F20CF10CF00CA00BBE2CC8
:101988000130A0002008FA0779087A02031CAE2C5F
:10199800781BFF2C7A08031DDA2C0030F300003086
:1019A800F2000030F1000030F00008007408F00781
:1019B8007508F13D7608F23D7708F33D731C7A2DE2
:1019C8007B1CED2C7B3601384001A0002008FB0071
:1019D800EF2C0310FB0C7018FB1701304001A0001E
:1019E800F337F20CF10CF00CA00BF42C0130A00032
:1019F8002008FA077A2D7308803A4001A00077087A
:101A0800803A2002031D122D76087202031D122D42
:101A180075087102031D122D7408700203184A2DEF
:101A2800FF30A000FF30A100FF30A200FF30A3006C
:101A380070087402A4007108753BA5007208763B13
:101A4800A6007308773BA7002408A0072508A13D36
:101A58002608A23D2708A33D2308F3002208F20028
:101A68002108F1002008F0008030A0002008F806C6
:101A7800FB09FB0A7B08031D522D0130F0070030DB
:101A8800F13D0030F23D0030F33D522D7408F00274
:101A98007508F13B7608F23B7708F33B730872044C
:101AA80071047004031D782D7B08031D782D003008
:101AB800F3000030F2000030F1000030F0000800C0
:101AC8000130F035F10DF20DF30D890B652DFB1B7F
:101AD80070147B1C712D0314722D0310FB0D7A08F2
:101AE8000319782D0130FA02F21F642DF901FB1F4A
:101AF800852D7B087F3903197018832D852DF901F1
:101B0800F90A79080319B22D0130F0070030F13DC8
:101B18000030F23D0030F33D731CB22D70084001D7
:101B2800A0007108A1007208A2007308A300013088
:101B3800A400A337A20CA10CA00CA40B9D2D230874
:101B4800F3002208F2002108F1002008F0007A0AC8
:101B58000319B22D0130A0002008FA077A0A031DE4
:101B68007A08031DC22D0030F3000030F200003067
:101B7800F1000030F0007A080319F8017A1CC62D2C
:101B8800F217CB2D7F304001A0002008F2057A36ED
:101B98004001A0002008F300F81F0800F317080010
:101BA800400123088039A8002808AD002335A80083
:101BB8002808B300A21B331433080319F02D330A85
:101BC800031DEE2D0030A3000030A2000030A1005C
:101BD8000030A000A217F82D0030A3000030A200AA
:101BE8000030A1000030A00027088039A80028088C
:101BF800AD062735A8002808B200A61B3214320803
:101C08000319132E320A031D112E0030A7000030CD
:101C1800A6000030A5000030A400A6171B2E003037
:101C2800A7000030A6000030A5000030A40032084C
:101C3800031D3308031D292E0030A3000030A20025
:101C48000030A1000030A00008002008A8002808E3
:101C5800F0002608933163238D3171084001B900E3
:101C68007008B8003808A800A901AA01AB012B0820
:101C7800B1002A08B0002908AF002808AE003908CA
:101C8800A800A901AA01AB012B08B7002A08B600D1
:101C98002908B5002808B4002108A8002808F00081
:101CA8002508933163238D3171084001B90070080C
:101CB800B8003808A800A901AA01AB012808AE0796
:101CC8002908AF3D2A08B03D2B08B13D3908A800C6
:101CD800A901AA01AB012808B4072908B53D2A08BB
:101CE800B63D2B08B73D2208A8002808F0002408B4
:101CF800933163238D3171084001B9007008B80031
:101D08003808A800A901AA01AB012808AE072908CC
:101D1800AF3D2A08B03D2B08B13D3908A800A901FC
:101D2800AA01AB012808B4072908B53D2A08B63D21
:101D38002B08B73D0830AE35AF0DB00DB10D890B8E
:101D48009F2E2108A8002808F00024089331632357
:101D58008D3171084001B9007008B8003808AE0725
:101D68003908AF3D0030B03DB13D2008A800280833
:101D7800F0002508933163238D3171084001B900C3
:101D88007008B8003808AE073908AF3D0030B03DDC
:101D9800B13D0830AE35AF0DB00DB10D890BCE2E6B
:101DA8002008A8002808F0002408933163238D3107
:101DB80071084001B9007008B8003808AE07390842
:101DC800AF3D0030B03DB13D2108A8002808F00023
:101DD8002608933163238D3171084001B9007008DA
:101DE800B8003808B4073908B53D0030B63DB73DEE
:101DF8002208A8002808F0002508933163238D31B4
:101E080071084001B9007008B8003808B4073908EB
:101E1800B53D0030B63DB73D2208A8002808F000BF
:101E28002608933163238D3171084001B900700889
:101E3800B8003808A8003908A900AA01AB01083081
:101E4800A835A90DAA0DAB0D890B242F2808B407B6
:101E58002908B53D2A08B63D2B08B73D2E08A8002D
:101E68002F08A9003008AA003108AB001830AB369B
:101E7800AA0CA90CA80C890B3B2F2808B407290821
:101E8800B53D2A08B63D2B08B73D0830AE35AF0D35
:101E9800B00DB10D890B4A2F33083207A800A901EC
:101EA800A90D2808823EB800FF30293DB900B61BAD
:101EB800722F0130B435B50DB60DB70D890B5E2FF5
:101EC800B11B34140130AE35AF0DB00DB10D890B17
:101ED800672FFF30B807FF30B93D5B2FB201B11F44
:101EE8008B2FFF302E05A800FF302F05A900FF30EB
:101EF8003005AA007F303105AB002B082A042904DD
:101F0800280403193418892F8B2FB201B20A32081A
:101F18000319B42F0130B4070030B53D0030B63D89
:101F28000030B73D371CB42F3408A8003508A90085
:101F38003608AA003708AB000130AC00AB37AA0C52
:101F4800A90CA80CAC0BA22F2B08B7002A08B600C6
:101F58002908B5002808B4000130B8070030B93D99
:101F68003908803AA80080302802031DBD2FFF30B1
:101F78003802031CC92F7F304001B7008030B600FB
:101F88000030B5000030B400F32F40013908803A22
:101F9800A80080302802031DD32F0130380203180F
:101FA800E02F00304001B7000030B6000030B50027
:101FB8000030B400AD01F32F40013808A80028080C
:101FC800B300FF30B405FF30B5057F30B6050030EB
:101FD800B7053318B6173336A8002808B7002D08F8
:101FE800A8002808B7043708A3003608A200350857
:081FF800A1003408A00008005C
:1025CA00640080010131890BE62A003441019D181B
:1025DA00EB2A1C08F1001B08F000080073087204BB
:1025EA0071047004031908008030F3060800F00033
:1025FA00263042019E009D1770089A009E1C032BEC
:10260A009E1008006C304101D9005908DC004001D5
:10261A006B08E3006A08E200DC304101D90059087E
:10262A004001E40000309431072408007008BF3EDE
:10263A00F200FF30713DF300003073021A300319C3
:10264A00720203182A2B01302B2B0030F400F501FB
:10265A007408F0007508F1000800F4007408F2002C
:10266A007208F30074088600013087000108031914
:10267A00432B0130F2007208F407372B73087402F7
:10268A00F000F101F01BF103080010304001940042
:10269A00920100304201B2000130B100C230B000F4
:1026AA000030AF009531B22593311A304201A000B3
:1026BA009830A100883139209331622BF800F40157
:1026CA00F5017008F200F3017208F6007308F700CA
:1026DA00781C732B7608F4077708F53D0130F63538
:1026EA00F70D890B742B0310F80C7808031D6D2B5A
:1026FA007508F1007408F000080080304001BD063A
:10270A004108F3004008F2003F08F1003E08F000DB
:10271A003D08F7003C08F6003B08F5003A08F400CB
:10272A008B31EB2373084001BD007208BC007108AD
:10273A00BB007008BA000800F7007108F5007008BD
:10274A00F4007708F2007208F60076088600013075
:10275A008700F60A7508F3007408F200F40A0319F0
:10276A00F50A72088400730885000008C03F8908CA
:10277A0003190800AA2B7608BF3EF800FF30773D00
:10278A00F900003079021A30031978020318CF2BA6
:10279A000130D02B0030FA00FB017A08FC007B08DC
:1027AA00FD007C087D040319080020307604F60039
:1027BA0000307704F70008004001A300A101A2013C
:1027CA0021082307FA007A088600013087000108E9
:1027DA00FB007B08A0002008031908002008FA0063
:1027EA00FB017A08F1007B08F2007908FC007C08FA
:1027FA00F30088310420933101304001A1070030F1
:10280A00A23DE52B4001E7006308E9006208E80001
:10281A004101E701E8014001680884006908850070
:10282A00120003192D2C6830E5006508CF006408F2
:10283A00E6006608D00067088A31522294314001C6
:10284A004F084101E707400150084101E83D102CBB
:10285A00410168084001E300410167084001E200C4
:10286A000800F601F31F402CF209F309F20A0319D2
:10287A00F30AF601F60AF11F472CF009F109F00AEA
:10288A000319F10A7008710403196E2CF501F50A8F
:10289A00F11B592C0130F035F10D890B502C013008
:1028AA00F4007408F5074D2C71087302031D5F2CA0
:1028BA0070087202031C652C7008F2027108F33B5F
:1028CA000130F136F00C890B662C0130F502031D3C
:1028DA00592C76080319762CF209F309F20A03191E
:1028EA00F30A7308F1007208F0000800003070055E
:1028FA00F80000307105F90080307205FA007F3067
:10290A007305FB007B087A0479047804031D952C6F
:10291A000030F3000030F2000030F1000030F00027
:10292A0000307405F80000307505F900803076052E
:10293A00FA007F307705FB007B087A047904780473
:10294A00031DAF2C0030F7000030F6000030F50010
:10295A000030F40077087306031DBD2C7608720652
:10296A00031DBD2C75087106031DBD2C7408700665
:10297A000319C12C0310080003140800F500750898
:10298A00F4007408F8007108F7007008F6000130C6
:10299A00F2020030F33B720A031DFD2C730A031D79
:1029AA00FD2CF001F1010800760884007708850003
:1029BA0012000319032D720873040319032D7608F4
:1029CA008400770885000008F400780886008701EB
:1029DA0001087406031D032D0130F4007408F8077A
:1029EA000130F6070030F73D0130F2020030F33BC8
:1029FA007808860087010108031DD92C780886000B
:102A0A008701760884007708850000080102F00033
:102A1A00F101031CF10308004001AB0041016D1CE8
:102A2A001F2D40012B08FD007D08F9002408933171
:102A3A00E12395314001A61B272D2608AA00250867
:102A4A00A900292DA901AA01A701A8012808803AED
:102A5A00FD002A08803A7D02031D352D2908270228
:102A6A000318492D2030F1000030F20040012B08F4
:102A7A00FD007D08F30088310420953101304001C2
:102A8A00A7070030A83D2B2D41016D18552D400197
:102A9A002B08FD007D08F90024089331E1239531C4
:102AAA004001240893313223400129087007A40009
:102ABA002A08713DA5000800F601F11F6B2DF009E7
:102ACA00F109F00A0319F10AF601F60AF31F762D45
:102ADA00F209F309F20A0319F30A0130F40074083F
:102AEA00F606F701F801700871040319A52DF5011E
:102AFA00F50AF11B8A2D0130F035F10D890B812D74
:102B0A000130F4007408F5077E2D0130F735F80D11
:102B1A00890B8B2D71087302031D952D70087202A3
:102B2A00031C9C2D7008F2027108F33B77140130E4
:102B3A00F136F00C890B9D2D0130F502031D8A2D0B
:102B4A0076080319AD2DF709F809F70A0319F80AE7
:102B5A007808F1007708F00008007E01CE011430F1
:102B6A007D01CB000F307E01A50042012F08B30082
:102B7A003008B4003108B5003208B6000430B33565
:102B8A00B40DB50DB60D890BC42D3608A300350852
:102B9A00A2003408A1003308A0002F08B7003008AB
:102BAA00B8003108B9003208BA000430B735B80D98
:102BBA00B90DBA0D890BDB2D0030BB004830BC00C3
:102BCA00E830BD000130BE003708BB023808BC3B04
:102BDA003908BD3B3A08BE3B3E08A7003D08A6009F
:102BEA003C08A5003B08A4009631E92642012108C9
:102BFA00C4002008C30043089B000B178B17A6309C
:102C0A009E0090309D009F014E0199160800031006
:102C1A00720D730DF4007408FA007A08031D1E2E53
:102C2A000030F3000030F2000030F1000030F00014
:102C3A0008007008F4007108F5007208F6007308BD
:102C4A00F7001F30F736F60CF50CF40C890B272E1B
:102C5A007408F8007808F900F217FF30F005FF3021
:102C6A00F105FF30F2050030F3059630FA02FA1F3B
:102C7A00512E7A08803A973E031C152E0130F336FE
:102C8A00F20CF10CF00C890B442E0130F40074089C
:102C9A00FA070319622E432E20307A020318152EE2
:102CAA007A080319622E0130F035F10DF20DF30D99
:102CBA00890B592E0130FA02552E7908031908009A
:102CCA00F009F109F209F309F00A0319F10A0319E3
:102CDA00F20A0319F30A0800410166084001A50037
:102CEA00410165084001A400410164084001A300B4
:102CFA00410163084001A2007308A5007208A400FC
:102D0A007108A3007008A2002208F4002308F50045
:102D1A002408F6002508F7001730F736F60CF50CEC
:102D2A00F40C890B922EFF307405A0000030750553
:102D3A00A10020082104031DC12E2208F400230843
:102D4A00F5002408F6002508F7000130F435F50DE2
:102D5A00F60DF70D890BAB2E77087604750474040B
:102D6A00031DBC2E0230F0000030F10008000330D1
:102D7A00F0000030F1000800200A2104031DE42EAF
:102D8A002208F4002308F5002408F6002508F700B5
:102D9A000930F435F50DF60DF70D890BCE2E7708AF
:102DAA00760475047404031DDC2E0130DD2E003018
:102DBA00F800F9017808F0007908F10008000430F9
:102DCA00F0000030F10008004201AA01A31FFA2E08
:102DDA00A009A109A209A309A00A0319A10A0319B2
:102DEA00A20A0319A30AAA01AA0AA71F0B2FA40958
:102DFA00A509A609A709A40A0319A50A0319A60A77
:102E0A000319A70A0130A8002808AA060030AE0054
:102E1A000030AD000030AC000030AB0023082204C3
:102E2A00210420040319542FA901A90AA31B292F3D
:102E3A000130A035A10DA20DA30D890B1E2F013063
:102E4A00A8002808A9071B2F0130AB35AC0DAD0D22
:102E5A00AE0D890B2A2F23082702031D3E2F2208B5
:102E6A002602031D3E2F21082502031D3E2F20089E
:102E7A002402031C492F2008A4022108A53B22088A
:102E8A00A63B2308A73B2B140130A336A20CA10CA6
:102E9A00A00C890B4A2F0130A902031D292F2A08E9
:102EAA000319622FAB09AC09AD09AE09AB0A0319C4
:102EBA00AC0A0319AD0A0319AE0A2E08A3002D089D
:102ECA00A2002C08A1002B08A0000800F80078082E
:102EDA00031DF31F802F7009FA007109FB007209A4
:102EEA00FC007309FD00FA0A0319FB0A0319FC0A1C
:102EFA000319FD0A882F7308FD007208FC00710887
:102F0A00FB007008FA007308720471047004031D50
:102F1A00972F0030F3000030F2000030F10000304B
:102F2A00F00008009630F4007408F900FE307D05C0
:102F3A000319BE2F0130F4007408F9070130FD3679
:102F4A00FC0CFB0CFA0C890BA42F9B2F0130F4000C
:102F5A007408F9070130FA070030FB3D0030FC3DE8
:102F6A000030FD3D0130FD36FC0CFB0CFA0C890BE0
:102F7A00B82FFF307D050319D02FAB2F023079020D
:102F8A00031CD22F0130F9020130FA35FB0DFC0D7A
:102F9A00FD0D890BCA2FFC1FC32F7918DC2FFF30B8
:102FAA00FA05FF30FB057F30FC05FF30FD050310F5
:102FBA00F90C7908F400F501F601F7011830F43537
:102FCA00F50DF60DF70D890BE42F7408FA04750850
:102FDA00FB047608FC047708FD047808031DF31F38
:102FEA00F72FFD177D08F3007C08F2007B08F1003B
:102FFA007A08F00008002534663420340A340D3487
:10300A002034003449344E34463400344E3441348A
:10301A004E34003469346E34663400346E346134AC
:10302A006E3400346C346634003443343134003442
:020000040001F9
:0A000E008C3FFF3FDF3FFF3FFF3F45
:00000001FF
