:020000040000FA
:04000000803114280F
:100008007E1480317430F0007008F30092310722BA
:10001800F000730886008701700881007E100900CF
:1000280080311628F501F601F701F8012030840027
:10003800013085000C308731F9278031A0308400E9
:100048000130850050308731F9277E104001953105
:10005800FA2D4101BC00BA01BB014001570841011A
:10006800D000400156084101CF0040015508410128
:10007800CE00400154084101CD0050084001CB009A
:1000880041014F084001CA0041014E084001C90022
:1000980041014D084001C8000030CF000030CE00BB
:1000A8000030CD000030CC00963175268031031821
:1000B800842801304101BA000030BB0050084001DB
:1000C800A30041014F084001A20041014E08400130
:1000D800A10041014D084001A00092310D2280315C
:1000E800400123084101D000400122084101CF000E
:1000F800400121084101CE00400120084101CD0006
:100108004101D301D40142012B084101C100420140
:100118002A084101C0003A083B04031D9528771DB1
:10012800AE283A083B04031D9B282B309C282D3011
:10013800A4000030A50024084001D9005908430153
:10014800A00001304101D3070030D43DFF30C00783
:10015800FF30C13D50084001A30041014F08400154
:10016800A20041014E084001A10041014D08400193
:10017800A000953182258031400120032104031D10
:100188000F295808BF3ED900FF3003180030DA00A5
:1001980000305A021A30031959020318D5280130C1
:1001A800D6280030DB00DC015B084101A6004001D5
:1001B8005C084101A700260827040319E82807302E
:1001C8004001A0009830EC280F304001A000983082
:1001D800A10041015308A03E9231BB228031FD307D
:1001E8004101C007FF30C13DA0304001D900590886
:1001F800B100410141084001B300410140084001FC
:10020800B20041013C089331D32340013208D500A4
:100218003108D4000800410150084001A300410101
:100228004F084001A20041014E084001A1004101D0
:100238004D084001A00095318225803140012008F9
:100248002104031D71295808BF3ED900FF30031847
:100258000030DA0000305A021A3003195902031824
:100268003729013038290030DB00DC015B08410107
:10027800A80040015C084101A900280829040319C5
:100288004A290B304001A00098304E291330400114
:10029800A0009830A10041015308A03E9231BB2232
:1002A8008031FD304101C007FF30C13DA030400121
:1002B800D9005908B100410141084001B30041018A
:1002C80040084001B20041013C089331D32340016A
:1002D8003208D5003108D40008003F304101D80069
:1002E8008030D7000030D6000030D500D101D201CF
:1002F80050084001A30041014F084001A2004101FC
:100308004E084001A10041014D084001A000003005
:10031800A7000030A6000030A5000030A4008831F6
:1003280001208031031CC929582A41304001B100FD
:100338002030B0000030AF000030AE004101580856
:100348004001B500410157084001B4004101560879
:100358004001B300410155084001B2008D31D42558
:100368008031400131084101D80040013008410185
:10037800D70040012F084101D60040012E08410155
:10038800D5000130D1070030D23D4101500840016D
:10039800CB0041014F084001CA0041014E0840010D
:1003A800C90041014D084001C8004130B10020306A
:1003B800B0000030AF000030AE00410158084001E5
:1003C800B500410157084001B400410156084001F9
:1003D800B300410155084001B2008D31D425803168
:1003E80040013108CF003008CE002F08CD002E087C
:1003F800CC00963175268031031C332A9929413067
:100408004001A3002030A2000030A1000030A0006D
:10041800410158084001A700410157084001A600C2
:10042800410156084001A500410155084001A400BA
:100438008831E0208031400123084101D800400183
:1004480022084101D700400121084101D60040019E
:1004580020084101D500FF30D107FF30D23D4101CE
:1004680050084001CB0041014F084001CA0041013A
:100478004E084001C90041014D084001C800410132
:1004880058084001CF00410157084001CE00410102
:1004980056084001CD00410155084001CC00963175
:1004A80075268031031C032A40015808D900DA0157
:1004B8005908A6005A08A7009231DB228031400172
:1004C8002608DB005B084101C20042084001D90050
:1004D80059084101BF0067304206031D8D2A75087F
:1004E8007604031D7B2A0130F5000030F6007608FB
:1004F800803A4001D90080305902031D852A013015
:10050800750203188F2A06304101BD000030BE0075
:10051800942AF61B872A76084101BE007508BD009B
:1005280067304206031DC72A5208803A4001D900A5
:100538007F305902031DA32AFC3041015102031CDC
:10054800C12A41013D08FF3E4001D900FF30410169
:100558003E3D4001DA005A08803ADB00410152086A
:10056800803A40015B02031DBD2A41015108400148
:100578005902031CC12A6630C22A65304001D900DD
:1005880059084101BF003E08B5003D08B400673076
:100598004206031DD42A66303F060319D21FD82A03
:1005A8000130B4070030B53D66303F06031DF02A20
:1005B800D21FE82A3F30D8008030D7000030D6005C
:1005C8000030D500D101D201673042060319F02A64
:1005D8005108B4075208B53DCB01CC015008C600FC
:1005E8004F08C5004E08C4004D08C3005808A300B2
:1005F8005708A2005608A1005508A0004C08803AE8
:100608004001D90041013508803A40015902031DD3
:10061800102B410134084B020318EA2B41015808FA
:100628004001A300410157084001A20041015608BA
:100638004001A100410155084001A00041014608C0
:100648004001A700410145084001A60041014408B6
:100658004001A500410143084001A4008831E02081
:10066800803140012308BD002208BC002108BB00DE
:100678002008BA0087312127803140013D08410117
:10068800CA0040013C084101C90040013B08410142
:10069800C80040013A084101C7004A084001A300C8
:1006A800410149084001A200410148084001A10058
:1006B800410147084001A00095311C2580314001C7
:1006C80021084101B900400120084101B8004A0849
:1006D8004001B500410149084001B4004101480802
:1006E8004001B300410147084001B20041015808E8
:1006F8004001B100410157084001B00041015608CE
:100708004001AF00410155084001AE008D31D425AC
:10071800803140013108CB003008CA002F08C900D9
:100728002E08C800410146084001CF004101450894
:100738004001CE00410144084001CD004101430879
:100748004001CC0092317C22803140014B084101AC
:10075800C60040014A084101C5004001490841015D
:10076800C400400148084101C30041304001A300D2
:100778002030A2000030A1000030A000410158083C
:100788004001A700410157084001A6004101560851
:100798004001A500410155084001A4008831E0202E
:1007A8008031400123084101D8004001220841015D
:1007B800D700400121084101D6004001200841012D
:1007C800D5000130CB070030CC3D022B4030400132
:1007D800B100A030B0000030AF000030AE004101E1
:1007E80058084001B500410157084001B4004101D3
:1007F80056084001B300410155084001B2008D314F
:10080800D4258031400131084101CA004001300837
:100818004101C90040012F084101C80040012E08CC
:100828004101C70046084001CB004101450840018D
:10083800CA00410144084001C90041014308400180
:10084800C80041014A084001CF0041014908400160
:10085800CE00410148084001CD0041014708400150
:10086800CC0096317526803103183D2C00304101AB
:10087800662C410146084001A3004101450840019A
:10088800A200410144084001A10041014308400180
:10089800A00041014A084001A70041014908400160
:1008A800A600410148084001A50041014708400150
:1008B800A400883101208031031C6D2C41013818B7
:1008C8006D2C0030CA000030C9000030C80000306C
:1008D800C70041014A084001A300410149084001FD
:1008E800A200410148084001A10041014708400118
:1008F800A000410150084001A70041014F084001F4
:10090800A60041014E084001A50041014D084001E3
:10091800A4008B31F2238031400123084101C60035
:10092800400122084101C500400121084101C400DD
:10093800400120084101C3002308D8002208D7003D
:100948002108D6002008D50065303F060319B12CD0
:100958005208B7005108B600B32CB601B701B2016E
:10096800B301B001B101CB01CC01F72D4101580809
:100978004001A300410157084001A2004101560867
:100988004001A100410155084001A000410146086D
:100998004001A700410145084001A6004101440863
:1009A8004001A500410143084001A4008831E0202E
:1009B800803140012308BD002208BC002108BB008B
:1009C8002008BA0087312127803140013D084101C4
:1009D800CA0040013C084101C90040013B084101EF
:1009E800C80040013A084101C7004A084001A30075
:1009F800410149084001A200410148084001A10005
:100A0800410147084001A00095311C258031400173
:100A180021084101B900400120084101B800771AB6
:100A2800232D38083904031D232D67304206031986
:100A3800B71F232D0130B0070030B13D752D3208A6
:100A480033040319B71F412D2E304001D90041014D
:100A58005308A03E860001308700400159088100F4
:100A680001304101D3070030D43DFF30C007FF30CB
:100A7800C13D0130B2000030B30030083104031921
:100A88005F2D30304001D90041015308A03E860057
:100A98000130870040015908810001304101D30726
:100AA8000030D43DFF30C007FF30C13DFF30B007F4
:100AB800FF30B13D412D3808303E4001D900410199
:100AC8005308A03E86000130870040015908810084
:100AD80001304101D3070030D43DFF30C007FF305B
:100AE800C13D4A084001B500410149084001B40030
:100AF800410148084001B300410147084001B200E4
:100B0800410158084001B100410157084001B000B7
:100B1800410156084001AF00410155084001AE00AF
:100B28008D31D425803140013108CB003008CA000E
:100B38002F08C9002E08C800410146084001CF000F
:100B4800410145084001CE00410144084001CD0063
:100B5800410143084001CC0092317C2280314001A0
:100B68004B084101C60040014A084101C500400147
:100B780049084101C400400148084101C30041300F
:100B88004001A3002030A2000030A1000030A000E6
:100B9800410158084001A700410157084001A6003B
:100BA800410156084001A500410155084001A40033
:100BB8008831E0208031400123084101D8004001FC
:100BC80022084101D700400121084101D600400117
:100BD80020084101D500FF30B607FF30B73D01308E
:100BE800CB070030CC3D4C08803A4001D900410188
:100BF8003508803A40015902031D052E4101340889
:100C08004B020318152E41015408803A4001D900BF
:100C180080305902031D132E4B3041015302031C2F
:100C2800BA2C4101320833040319771E2C2E2E30BA
:100C38004001D90041015308A03E860001308700D9
:100C480040015908810001304101D3070030D43DEB
:100C58005308A03E860001308700810165303F06B9
:100C6800031D0A2F4F30CB000030CC004B08A03EAC
:100C78008600013087008101BA01BB01D21F4D2EC9
:100C88000130BA000030BB00D109D209D10A0319DA
:100C9800D20A0230BD000030BE00510852040319C8
:100CA800972EFF304101CB07FF30CC3D0A30400181
:100CB800A0000030A100410152084001A3004101F9
:100CC80051084001A20093318D2380314001200852
:100CD800303ED90041014B08A03E86000130870014
:100CE8004001590881000A30A0000030A1004101EC
:100CF80052084001A300410151084001A20094316B
:100D08006F248031400121084101D20040012008B0
:100D18004101D100FF30BD07FF30BE3DFF30C007A5
:100D2800FF30C13D512E3E08803A4001D900803045
:100D38005902031DA22E013041013D020318552E10
:100D4800FF304101CB07FF30CC3D3A083B04031D7F
:100D5800AF2E2B30B02E2D30AA000030AB002A0861
:100D68004001D90041014B08A03E860001308700B0
:100D7800400159088100FF304101C007FF30C13DE3
:100D8800FF30CB07FF30CC3D40015808BF3ED900AB
:100D9800FF3003180030DA0000305A021A30031905
:100DA80059020318D92E0130DA2E0030DB00DC019D
:100DB8005B084101AE0040015C084101AF002E080C
:100DC8002F04031DE92E6530EA2E4530AC000030B3
:100DD800AD002C084001D90041014B08A03E860017
:100DE80001308700400159088100FF304101C007E8
:100DF800FF30C13D4B08A03E4001A0000130A100DA
:100E080041015308A03E9231BB228031A0304001FD
:100E1800D9005908B100410141084001B30041011E
:100E280040084001B20041013C089331D3234001FE
:100E38003208D5003108D4000800420123084001D7
:100E4800CD00420122084001CC00420121084001A6
:100E5800CB00420120084001CA003D08CD003C08F3
:100E6800CC003B08CB003A08CA004A08BE004B0831
:100E7800BF004C08C0004D08C1001730C136C00C77
:100E8800BF0CBE0C890B422FFF303E05C20000305C
:100E98003F05C3004208813EC800FF30433DC900FA
:100EA8004908803ABE0080303E02031D5D2F17308E
:100EB8004802031808004001C91BBA2FFF30BE00C2
:100EC800FF30BF007F30C0000030C100480A702FDB
:100ED800C137C00CBF0CBE0C890B6C2F4108C70072
:100EE8004008C6003F08C5003E08C4004A0844053B
:100EF800BE004B084505BF004C084605C0004D081C
:100F08004705C100410840043F043E040319080096
:100F18004A08BE004B08BF004C08C0004D08C1007D
:100F28001F30C136C00CBF0CBE0C890B952F410871
:100F380040043F043E040319A92F4408CA07450882
:100F4800CB3D4608CC3D4708CD3D4409BE00450988
:100F5800BF004609C0004709C1003E08CA053F084E
:100F6800CB054008CC054108CD05F02F4A08BE0046
:100F78004B08BF004C08C0004D08C1001F30C136E7
:100F8800C00CBF0CBE0C890BC32F410840043F04A2
:100F98003E04031DD32F0030CD000030EB2F4A084C
:100FA800BE004B08BF004C08C0004D08C10001300E
:100FB800BE35BF0DC00DC10D890BDC2F41084004A3
:100FC8003F043E040319F02FBF30CD008030CC0021
:100FD8000030CB000030CA004D08BD004C08BC00F2
:100FE8004B08BB004A08BA000800640080010131C0
:060FF800890BFA2F003402
:10100200003040012005A80000302105A9008030F1
:101012002205AA007F302305AB002B082A042904ED
:101022002804031D1C280030A3000030A200003059
:10103200A1000030A00000302405A80000302505E2
:10104200A90080302605AA007F302705AB002B08B7
:101052002A0429042804031D36280030A700003082
:10106200A6000030A5000030A40027082306031DB7
:10107200442826082206031D442825082106031DAC
:1010820044282408200603194828031008000314E2
:1010920008004001A8002808031DA31F602820099A
:1010A200AA002109AB002209AC002309AD00AA0A5B
:1010B2000319AB0A0319AC0A0319AD0A68282308FD
:1010C200AD002208AC002108AB002008AA002308CA
:1010D200220421042004031D77280030A3000030DD
:1010E200A2000030A1000030A00008009630A40049
:1010F2002408A900FE302D0503199E280130A40002
:101102002408A9070130AD36AC0CAB0CAA0C890B34
:1011120084287B280130A4002408A9070130AA07EB
:101122000030AB3D0030AC3D0030AD3D0130AD365E
:10113200AC0CAB0CAA0C890B9828FF302D050319B7
:10114200B0288B2802302902031CB2280130A902E0
:101152000130AA35AB0DAC0DAD0D890BAA28AC1F21
:10116200A3282918BC28FF30AA05FF30AB057F3021
:10117200AC05FF30AD050310A90C2908A400A50198
:10118200A601A7011830A435A50DA60DA70D890B40
:10119200C4282408AA042508AB042608AC0427089E
:1011A200AD042808031DA31FD728AD172D08A300DF
:1011B2002C08A2002B08A1002A08A0000800400168
:1011C20027088039A8002808B1002735A800280878
:1011D200B800A61B381438080319FD28380A031D65
:1011E200FA280030A7000030A6000030A500003029
:1011F200A400A617A70105290030A7000030A60009
:101202000030A5000030A40023088039A800280877
:10121200B1062335A8002808B900A21B39143908E1
:1012220003192129390A031D1E290030A3000030A9
:10123200A2000030A1000030A000A217A3012929BA
:101242000030A3000030A2000030A1000030A00056
:101252002308220421042004031D48290030A7008A
:101262000030A6000030A5000030A4008030A604A3
:101272007F30A7043108A8002808A7042708A30084
:101282002608A2002508A1002408A00008003808AA
:10129200031D54290030A3000030A2000030A10039
:1012A2000030A00008003808A800A9012908AB00F6
:1012B20039082802AA00031CAB032A087F3EB200A9
:1012C20000302B3DB3002708B0002608AF002508E8
:1012D200AE002408AD000030A7000030A6000030A8
:1012E200A5000030A4000030B7000030B600003086
:1012F200B5000030B400B9011A3039020318B92917
:10130200390803199B290130AD35AE0DAF0DB00D73
:10131200890B85290130A435A50DA60DA70D890BD2
:101322008C29B71B24140130B435B50DB60DB70D99
:10133200890B952923083002031DA92922082F02AF
:10134200031DA92921082E02031DA92920082D0207
:10135200031CB42937172008AD022108AE3B22082E
:10136200AF3B2308B03B0130A8002808B9077D290C
:1013720030082F042E042D04031D3414A61BD62975
:101382000130A435A50DA60DA70D890BC229B71BE7
:1013920024140130B435B50DB60DB70D890BCB2928
:1013A200FF30B207FF30B33DBF29B901B71FEF29A4
:1013B200FF303405A800FF303505A900FF3036059F
:1013C200AA007F303705AB002B082A042904280421
:1013D20003192418ED29EF29B901B90A39080319AB
:1013E200182A0130A4070030A53D0030A63D003088
:1013F200A73D271C182A2408A8002508A9002608AA
:10140200AA002708AB000130AC00AB37AA0CA90C2C
:10141200A80CAC0B062A2B08A7002A08A60029084C
:10142200A5002808A4000130B2070030B33D3308FC
:10143200803AA80080302802031D212AFF303202A0
:10144200031C302AFF304001B2000030B3000030EC
:10145200A7000030A6000030A5000030A400400123
:101462003308803AA80080302802031D3A2A01304E
:1014720032020318482A4001B201B3010030A7002A
:101482000030A6000030A5000030A400B1014001E8
:101492003208A8002808B800381C512AA617552A75
:1014A2007F30A8002808A6053836A8002808A7001B
:1014B2003B294001EF005D0886008701403FDF00C5
:1014C200413FE0005F088400600885001200253A71
:1014D200031DCF2B5D088600870101308107413152
:1014E2000318810A4201AA01AB01F701F801FF309A
:1014F200F500FF30F60040015D0886008701403F9D
:10150200DF00413FE0005F088400600885000008BA
:10151200E100E2016108A6006208A7009231DB2225
:101522008A3140012608E3006308EB006B080319C7
:10153200D72A5D0886008701403FDF00413FE00077
:1015420001305F07840060080318600A8500000804
:10155200E100E2016108A6006208A7009231DB22E5
:101562008A3140012608E3006308EC006C08031985
:10157200D72A5D0886008701403FDF00413FE00037
:1015820002305F07840060080318600A85000008C3
:10159200E100E2016108A6006208A7009231DB22A5
:1015A2008A3140012608E3006308ED0066306B06CD
:1015B200031D172B5D0886008701403FDF00413F76
:1015C200E0005F088400600885000008E10061080F
:1015D200EE005D0886008701013081074131031862
:1015E200810A5E08860087010108840085010430B3
:1015F2008107003FE700013FE800023FE900033FA7
:10160200EA006A08D7006908D6006808D5006708AA
:10161200D4006E08DF005F08D8006F0880312D20EB
:1016220040015508DE005408DD0008001730A00014
:101632009830A1000230A2000030A3006B30943138
:1016420020248A31400120082104031D9D2B5D08BE
:1016520086008701403FDF00413FE00001305F0725
:10166200840060080318600A85000008E100610830
:10167200EE005D0886008701403FDF00413FE00049
:101682005F088400600885000008BF3EE100FF306B
:1016920003180030E200003062021A3003196102BE
:1016A2000318552B0130562B0030E300E401630888
:1016B200E5006408E600650866040319702B5E08FD
:1016C2008600870101088400850104308107003FFC
:1016D200E700013FE800023FE900033F7F2B5E087D
:1016E2008600870101088400850104308107003FDC
:1016F200E700013FE800023FE900033FEA005D081E
:10170200860087010230810741310318810A6A0885
:10171200D7006908D6006808D5006708D4006E08AB
:10172200DF005F08D8006F0880312D204001550886
:10173200DE005408DD0008005D0886008701403F96
:10174200DF00413FE0005F0884006008850012006E
:10175200253A031DC42B5D088600870101308107ED
:1017620041310318810A2530A1000030A2006F0820
:10177200DF005F08A3009331562301304001DD00F2
:101782000030DE0008005D08860087010130810715
:1017920041310318810ADD01DE0108005D0886007F
:1017A2008701403FDF00413FE0005F08840060089E
:1017B20085000008E100E2016108A1006208A200C0
:1017C2006F08E3006308A300933156238A31400176
:1017D2005D08860087010130810741310318810AC3
:1017E200BE2B400123088039A8002808B000233509
:1017F200A8002808B200A21B3214320803190F2CC9
:10180200320A031D0C2C0030A3000030A20000306D
:10181200A1000030A000A217A301172C0030A300E2
:101822000030A2000030A1000030A000270880395B
:10183200A8002808B10031083006031D30172735EB
:10184200A8002808B100A61B311431080319372C4F
:10185200310A031D342C0030A7000030A6000030EE
:10186200A5000030A400A617A7013F2C0030A70056
:101872000030A6000030A5000030A400320831027A
:101882000318852C301F492C8030A8002808B00688
:101892003208A8002808B3003108A8002808B200BE
:1018A2003308A8002808B1002008A8002808B300BF
:1018B2002408A8002808A0003308A8002808A400CB
:1018C2002108A8002808B3002508A8002808A100BC
:1018D2003308A8002808A5002208A8002808B30099
:1018E2002608A8002808A2003308A8002808A60095
:1018F2002308A8002808B3002708A8002808A30086
:101902003308A8002808A700B3013108A800A901DC
:101912002908AB0032082802AA00031CAB032B08DB
:10192200803AAC0080302C02031D992C1A302A0216
:10193200031CCD2C40012308220421042004031996
:10194200A42C0130A52C0030A8002808B3000030D8
:10195200A3000030A2000030A1000030A000310836
:10196200A8002808B200D22C331CBD2C3336013813
:10197200A8002808B300BF2C0310B30C2018B3171B
:101982000130A800A337A20CA10CA00CA80BC32CF9
:101992000130A8002808B207400131083202031CB6
:1019A200B52C301B032D3208031DE02C0030A300A0
:1019B2000030A2000030A1000030A000080024087E
:1019C200A0072508A13D2608A23D2708A33D231C08
:1019D2007D2D331CF22C33360138A8002808B300C1
:1019E200F42C0310B30C2018B3170130A800A3374E
:1019F200A20CA10CA00CA80BF82C0130A8002808FE
:101A0200B2077D2D2308803AA8002708803A2802D1
:101A1200031D152D26082202031D152D250821025E
:101A2200031D152D2408200203184D2DFF30A80098
:101A3200FF30A900FF30AA00FF30AB0020082402CB
:101A4200AC002108253BAD002208263BAE0023084E
:101A5200273BAF002C08A8072D08A93D2E08AA3D58
:101A62002F08AB3D2B08A3002A08A2002908A100D9
:101A72002808A0008030A8002808B006B309B30ADD
:101A82003308031D552D0130A0070030A13D003061
:101A9200A23D0030A33D552D2408A0022508A13BFC
:101AA2002608A23B2708A33B230822042104200482
:101AB200031D7B2D3308031D7B2D0030A300003056
:101AC200A2000030A1000030A00008000130A035C3
:101AD200A10DA20DA30D890B682DB31B2014331C7D
:101AE200742D0314752D0310B30D320803197B2DC9
:101AF2000130B202A21F672DB101B31F882D330836
:101B02007F3903192018862D882DB101B10A3108B9
:101B12000319B42D0130A0070030A13D0030A23DD1
:101B22000030A33D231CB42D2008A8002108A900E1
:101B32002208AA002308AB000130AC00AB37AA0C84
:101B4200A90CA80CAC0B9F2D2B08A3002A08A200FD
:101B52002908A1002808A000320A0319B42D013077
:101B6200A8002808B207320A031D3208031DC42D3B
:101B72000030A3000030A2000030A1000030A0001D
:101B820032080319B001321CC82DA217CC2D7F30A8
:101B9200A8002808A2053236A8002808A300B01F12
:101BA2000800A3170800400131088039B600360842
:101BB200BB003135B6003608C100B01B41144108E4
:101BC2000319F02D410A031DEE2D0030B100003043
:101BD200B0000030AF000030AE00B017F82D00307A
:101BE200B1000030B0000030AF000030AE00350868
:101BF2008039B6003608BB063535B6003608BC005B
:101C0200B41B3C143C080319132E3C0A031D112E6D
:101C12000030B5000030B4000030B3000030B20034
:101C2200B4171B2E0030B5000030B4000030B300F2
:101C32000030B2003C08031D4108031D292E00306C
:101C4200B1000030B0000030AF000030AE0008003C
:101C52002E08B6003608A000340892319B228D313E
:101C620040012108C7002008C6004608B600B70197
:101C7200B801B9013908C0003808BF003708BE00F2
:101C82003608BD004708B600B701B801B9013908E6
:101C9200C5003808C4003708C3003608C2002F0840
:101CA200B6003608A000330892319B228D314001E4
:101CB2002108C7002008C6004608B600B701B801CF
:101CC200B9013608BD073708BE3D3808BF3D39089F
:101CD200C03D4708B600B701B801B9013608C207CE
:101CE2003708C33D3808C43D3908C53D3008B60041
:101CF2003608A000320892319B228D314001210822
:101D0200C7002008C6004608B600B701B801B901ED
:101D12003608BD073708BE3D3808BF3D3908C03D0B
:101D22004708B600B701B801B9013608C20737083B
:101D3200C33D3808C43D3908C53D0830BD35BE0D28
:101D4200BF0DC00D890B9F2E2F08B6003608A000CC
:101D5200320892319B228D3140012108C7002008B0
:101D6200C6004608BD074708BE3D0030BF3DC03D26
:101D72002E08B6003608A000330892319B228D311E
:101D820040012108C7002008C6004608BD074708D1
:101D9200BE3D0030BF3DC03D0830BD35BE0DBF0D5C
:101DA200C00D890BCE2E2E08B6003608A0003208D0
:101DB20092319B228D3140012108C7002008C600C4
:101DC2004608BD074708BE3D0030BF3DC03D2F0855
:101DD200B6003608A000340892319B228D314001B2
:101DE2002108C7002008C6004608C2074708C33DAD
:101DF2000030C43DC53D3008B6003608A0003308A7
:101E020092319B228D3140012108C7002008C60073
:101E12004608C2074708C33D0030C43DC53D3008EF
:101E2200B6003608A000340892319B228D31400161
:101E32002108C7002008C6004608B6004708B700B8
:101E4200B801B9010830B635B70DB80DB90D890B17
:101E5200242F3608C2073708C33D3808C43D390865
:101E6200C53D3D08B6003E08B7003F08B80040082F
:101E7200B9001830B936B80CB70CB60C890B3B2F29
:101E82003608C2073708C33D3808C43D3908C53D86
:101E92000830BD35BE0DBF0DC00D890B4A2F41085C
:101EA2003C07B600B701B70D3608823EC600FF30C8
:101EB200373DC700C41B722F0130C235C30DC40D9C
:101EC200C50D890B5E2FC01B42140130BD35BE0DFE
:101ED200BF0DC00D890B672FFF30C607FF30C73D0E
:101EE2005B2FBC01C01F8B2FFF303D05B600FF30BA
:101EF2003E05B700FF303F05B8007F304005B9000E
:101F0200390838043704360403194218892F8B2FF5
:101F1200BC01BC0A3C080319B42F0130C2070030CF
:101F2200C33D0030C43D0030C53D451CB42F4208BE
:101F3200B6004308B7004408B8004508B9000130AC
:101F4200BA00B937B80CB70CB60CBA0BA22F3908C5
:101F5200C5003808C4003708C3003608C200013083
:101F6200C6070030C73D4708803AB60080303602C7
:101F7200031DBD2FFF304602031CC92F7F304001D5
:101F8200C5008030C4000030C3000030C200F32F0F
:101F920040014708803AB60080303602031DD32F35
:101FA200013046020318E02F00304001C500003026
:101FB200C4000030C3000030C200BB01F32F400157
:101FC2004608B6003608C100FF30C205FF30C3051F
:101FD2007F30C4050030C5054118C4174136B6002C
:101FE2003608C5003B08B6003608C5044508B100EE
:0E1FF2004408B0004308AF004208AE000800EB
:10240E004E018F1E072A42011908080040012308B9
:10241E00220421042004031908008030A3060800BA
:10242E004001A000263042019E009D174001200869
:10243E0042019A009E1C212A9E100800E3304101A1
:10244E00E7006708EA006208DA006108D900EA309E
:10245E00E7006708DB0000309331232308001530B6
:10246E004001A200C630890B3A2AA20B3A2A00007C
:10247E0041019D149D18412A1C084001A1004101F3
:10248E001B084001A000080040012008BF3EA2002A
:10249E00FF30213DA300003023021A30031922021F
:1024AE0003185B2A01305C2A0030A400A501240821
:1024BE00A0002508A10008004001A4002408A200E5
:1024CE002208A300240886000130870001080319A2
:1024DE00752A0130A2002208A407692A23082402C3
:1024EE00A000A101A01BA103080080304001CB0673
:1024FE004F08A3004E08A2004D08A1004C08A000F2
:10250E004B08A7004A08A6004908A5004808A400E1
:10251E008B31F22340012308CB002208CA00210888
:10252E00C9002008C80008004001A800A401A501A8
:10253E002008A200A3012208A6002308A700281C39
:10254E00AC2A2608A4072708A53D0130A635A70DFD
:10255E00890BAD2A0310A80C2808031DA62A2508EE
:10256E00A1002408A00008004001A7002108A50032
:10257E002008A4002708A2002208A600260886002C
:10258E0001308700A60A2508A3002408A200A40A89
:10259E000319A50A22088400230885000008C03FFD
:1025AE00890803190800C52A40012608BF3EA80065
:1025BE00FF30273DA900003029021A3003192802E6
:1025CE000318EB2A0130EC2A0030AA00AB012A08CE
:1025DE00AC002B08AD002C082D0403190800203088
:1025EE002604A60000302704A70008004001B00012
:1025FE00AE01AF012E083007AA002A08860001306E
:10260E0087000108AB002B08AD002D080319080048
:10261E002D08AA00AB012A08A1002B08A200290848
:10262E00AC002C08A30093315623923101304001A7
:10263E00AE070030AF3D012B4101DE005A08E0002D
:10264E005908DF004201A801A90141015F08840079
:10265E0060088500120003194D2BDF30DC005C088A
:10266E004001DD0041015B08DD005D084001DE0038
:10267E0041015E088A315A22933140015D084201C0
:10268E00A80740015E084201A93D2C2B42012908F2
:10269E004101DA00420128084101D9000800400139
:1026AE002308031D2308031D602B210892311722D6
:1026BE0008002308033E8600870116000104031953
:1026CE00832B2308033E86008701403FA400413F31
:1026DE00A500230A86008701403FA600413FA700C0
:1026EE002708803AA8002508803A2802031D812B6E
:1026FE0024082602031808004001230A86008701D9
:10270E000130810741310318810A08004001A601FA
:10271E00A31F982BA209A309A20A0319A30AA601B3
:10272E00A60AA11F9F2BA009A109A00A0319A10A9D
:10273E00200821040319C62BA501A50AA11BB12B44
:10274E000130A035A10D890BA82B0130A40024085F
:10275E00A507A52B21082302031DB72B2008220253
:10276E00031CBD2B2008A2022108A33B0130A13679
:10277E00A00C890BBE2B0130A502031DB12B260820
:10278E000319CE2BA209A309A20A0319A30A23082F
:10279E00A1002208A00008004001B900771CDF2B21
:1027AE003908B4003408A90031089231FD22933162
:1027BE004001B31BE72B3308B8003208B700E92BF2
:1027CE00B701B801B501B6013608803AB400380831
:1027DE00803A3402031DF52B370835020318092CF5
:1027EE0020304001A1000030A2003908B4003408A6
:1027FE00A30093315623933101304001B5070030C9
:10280E00B63DEB2B7718142C40013908B400340870
:10281E00A90031089231FD229331400131089231E5
:10282E006322400137082007B1003808213DB2006D
:10283E0008004001A5002508A4002408A8002108CE
:10284E00A7002008A6000130A2020030A33B220AF6
:10285E00031D5B2C230A031D5B2CA001A1010800A4
:10286E00260884002708850012000319612C22080F
:10287E0023040319612C260884002708850000080C
:10288E00A40028088600870101082406031D612C78
:10289E000130A4002408A8070130A6070030A73D88
:1028AE000130A2020030A33B2808860087010108F0
:1028BE00031D372C28088600870126088400270868
:1028CE00850000080102A000A101031CA10308005D
:1028DE004001A601A11F7A2CA009A109A00A031983
:1028EE00A10AA601A60AA31F852CA209A309A20A62
:1028FE000319A30A0130A4002408A606A701A80103
:10290E00200821040319B42CA501A50AA11B992C9A
:10291E000130A035A10D890B902C0130A4002408A4
:10292E00A5078D2C0130A735A80D890B9A2C2108EF
:10293E002302031DA42C20082202031CAB2C20080A
:10294E00A2022108A33B27140130A136A00C890B4B
:10295E00AC2C0130A502031D992C26080319BC2CA2
:10296E00A709A809A70A0319A80A2808A100270879
:10297E00A00008007E01CE0114307D01CB000F3087
:10298E007E01A50040012F08B3003008B4003108C5
:10299E00B5003208B6000430B335B40DB50DB60D22
:1029AE00890BD32C3608A3003508A2003408A100E9
:1029BE003308A0002F08B7003008B8003108B9005E
:1029CE003208BA000430B735B80DB90DBA0D890BFF
:1029DE00EA2C0030BB004830BC00E830BD000130AE
:1029EE00BE003708BB023808BC3B3908BD3B3A086D
:1029FE00BE3B3E08A7003D08A6003C08A5003B08CC
:102A0E00A4009631F12640012108C4002008C3001D
:102A1E00430842019B000B178B17A6309E00903087
:102A2E009D009F014E019916080003104001220DD2
:102A3E00230DA4002408AA002A08031D2F2D003000
:102A4E00A3000030A2000030A1000030A00008005A
:102A5E002008A4002108A5002208A6002308A7002C
:102A6E001F30A736A60CA50CA40C890B382D2408F4
:102A7E00A8002808A900A217FF30A005FF30A10565
:102A8E00FF30A2050030A3059630AA02AA1F622DC0
:102A9E002A08803A973E031C262D0130A336A20C3D
:102AAE00A10CA00C890B552D0130A4002408AA07F7
:102ABE000319732D542D20302A020318262D2A08AF
:102ACE000319732D0130A035A10DA20DA30D890B95
:102ADE006A2D0130AA02662D290803190800A009E3
:102AEE00A109A209A309A00A0319A10A0319A20A9E
:102AFE000319A30A0800420127084001AF00420152
:102B0E0026084001AE00420125084001AD004201F9
:102B1E0024084001AC002308AF002208AE002108B3
:102B2E00AD002008AC002C08A4002D08A5002E082E
:102B3E00A6002F08A7001730A736A60CA50CA40CCC
:102B4E00890BA32DFF302405AA0000302505AB000C
:102B5E002A082B04031DD22D2C08A4002D08A50035
:102B6E002E08A6002F08A7000130A435A50DA60D2E
:102B7E00A70D890BBC2D2708260425042404031D4C
:102B8E00CD2D0230A0000030A10008000330A000BF
:102B9E000030A10008002A0A2B04031DF52D2C0875
:102BAE00A4002D08A5002E08A6002F08A7000930A6
:102BBE00A435A50DA60DA70D890BDF2D270826041C
:102BCE0025042404031DED2D0130EE2D0030A80048
:102BDE00A9012808A0002908A10008000430A000BF
:102BEE000030A10008001030400194009201003026
:102BFE00B2000130B100C230B0000030AF009431ED
:102C0E00C12495311A304001A0009830A1009731AF
:102C1E0073279531923136229531400121084201B8
:102C2E00B100400120084201B0003B304001B1002C
:102C3E00A030B0002830AF000B30AE00420130089B
:102C4E004001A000420131084001A100A201A301F0
:102C5E00003088314A20953140012308B500220802
:102C6E00B4002108B3002008B2008D31D42595316F
:102C7E00400131084201AF00400130084201AE0070
:102C8E0040012F084201AD0040012E084201AC0068
:102C9E0000304101E1009830E20042012F0841016D
:102CAE00E60042012E084101E50042012D084101D6
:102CBE00E40042012C084101E300923125229531B6
:102CCE0015304101EC004B30EB00BE30890B6D2E00
:102CDE00EB0B6D2EEC0B6D2E0000112E0030400113
:102CEE004805D00000304905D10080304A05D20099
:102CFE007F304B05D3005308520451045004031D7A
:102D0E00902E0030CB000030CA000030C9000030D9
:102D1E00C80000304C05D00000304D05D100803089
:102D2E004E05D2007F304F05D30053085204510494
:102D3E005004031DAA2E0030CF000030CE0000300C
:102D4E00CD000030CC00CB1FC42E0030D0000030A0
:102D5E00D1000030D2008030D3004808D00249089C
:102D6E00D13B4A08D23B4B08D33B5308CB00520809
:102D7E00CA005108C9005008C800CF1FDE2E00300F
:102D8E00D0000030D1000030D2008030D3004C088B
:102D9E00D0024D08D13B4E08D23B4F08D33B5308CF
:102DAE00CF005208CE005108CD005008CC00803024
:102DBE00CB068030CF064F084B02031D08004E088D
:102DCE004A02031D08004D084902031D08004C0865
:102DDE00480208004001AA01A31F022FA009A10961
:102DEE00A209A309A00A0319A10A0319A20A031929
:102DFE00A30AAA01AA0AA71F132FA409A509A609A7
:102E0E00A709A40A0319A50A0319A60A0319A70AF2
:102E1E000130A8002808AA060030AE000030AD0030
:102E2E000030AC000030AB00230822042104200443
:102E3E0003195C2FA901A90AA31B312F0130A0355C
:102E4E00A10DA20DA30D890B262F0130A800280875
:102E5E00A907232F0130AB35AC0DAD0DAE0D890B8F
:102E6E00322F23082702031D462F22082602031D98
:102E7E00462F21082502031D462F20082402031C7D
:102E8E00512F2008A4022108A53B2208A63B2308A7
:102E9E00A73B2B140130A336A20CA10CA00C890B5E
:102EAE00522F0130A902031D312F2A0803196A2F50
:102EBE00AB09AC09AD09AE09AB0A0319AC0A03198B
:102ECE00AD0A0319AE0A2E08A3002D08A2002C0885
:102EDE00A1002B08A0000800400120088400210852
:102EEE0085000008A2002208A4002108A3002008E3
:102EFE00A20001302207840023080318230A85004C
:102F0E000008D03EA600FF3003180030A700DD2FCA
:102F1E000130A200260A942FA235890B932F220886
:102F2E00A300230892040130A200260A9F2FA23587
:102F3E00890B9E2F2208A30023087E01B8040130BE
:102F4E004001A200260AAC2FA235890BAB2F220816
:102F5E00A300230893040130A200260AB72FA2353E
:102F6E00890BB62F2208A30023087E01C30401306B
:102F7E004001A200260AC42FA235890BC32F2208B6
:102F8E00A300230894040130A200260ACF2FA235F5
:102F9E00890BCE2F2208A30023087E01CE04400108
:102FAE002608103EA2002208A500F02F2408A20039
:102FBE00A3012308003A0319E52FF02F2208413A06
:102FCE0003198F2F033A0319A62F013A0319BE2FA7
:102FDE00F02F2508A2000130A235FF3E031DF32F6E
:102FEE002235A300230841019D04A0309E001D142C
:102FFE0008002534663420340A340D34203400346D
:10300E0049344E34463400344E3441344E34003458
:10301E0069346E34663400346E3461346E34003488
:0C302E006C346634003443343134003418
:020000040001F9
:0A000E008C3FFF3FDF3FFF3FFF3F45
:00000001FF
