:020000040000FA
:0400000080313A28E9
:100008007E1480314E010D1C2A2883311123803142
:1000180071084001B5007008B40083311C23803199
:1000280071084001B7007008B6003508F1003408BF
:10003800F00083312D23803140013708F100360864
:10004800F00083312D2380314E010D108F1E38288A
:100058008331342380314001B200B3013208AD004E
:100068003308AE008231F5227E10090080313C2829
:100078004B308400003085000830833127238031DD
:10008800A0308400003085002030833127237E1083
:1000980040018231DD2AFC00790886008701403F53
:1000A8004001A000413FA1002008840021088500EC
:1000B8001200253A031DCB287908860087010130F4
:1000C800810741310318810ACD01CE01D101D20146
:1000D800FF30CF00FF30D000790886008701403F0D
:1000E800A000413FA10020088400210885001200DB
:1000F8006E3A031D9C287908860087010130810724
:1001080041310318810A7A0886008701403F84003C
:100118008501810A0008A0002008FB007B088600F2
:1001280087014B08C03F4C08C13FF901FA0108009C
:10013800790886008701403FA000413FA1002008C0
:100148008400210885001200253A031DC228790879
:10015800860087010130810741310318810A253063
:10016800F1000030F2007C08A0002008F300823182
:1001780082220130F9000030FA0008007908860070
:1001880087010130810741310318810A99287908CC
:1001980086008701403FA000413FA100200884005D
:1001A800210885000008A200A3012208F100230805
:1001B800F2007C08A4002408F300823182228031F6
:1001C8007908860087010130810741310318810AC7
:1001D800BD28400138088400390885000008BA00A5
:1001E8003A08BC003908BB003808BA0001303A07A1
:1001F80084003B0803183B0A85000008D03EBE0077
:10020800FF3003180030BF004E010D1017140B17F4
:100218008B175C290130BA003E0A1329BA35890BBD
:1002280012293A08BB003B0892040130BA003E0A82
:100238001E29BA35890B1D293A08BB003B087E01E7
:10024800B80401304001BA003E0A2B29BA35890B9F
:100258002A293A08BB003B0893040130BA003E0A39
:100268003629BA35890B35293A08BB003B087E0187
:10027800C30401304001BA003E0A4329BA35890B4C
:1002880042293A08BB003B0894040130BA003E0AF0
:100298004E29BA35890B4D293A08BB003B087E0127
:1002A800CE0440013E08103EBA003A08BD0070294D
:1002B80040013C08BA00BB013B08003A0319652914
:1002C80070293A08413A03190E29033A03192529D6
:1002D800013A03193D2970293D08BA000130BA35A1
:1002E800FF3E031D73293A35BB003B0841019D04BD
:1002F800A0309E001D148530890B80290000410123
:100308009D1408004001C201BB1F9729B809B9090B
:10031800BA09BB09B80A0319B90A0319BA0A0319B1
:10032800BB0AC201C20ABF1FA829BC09BD09BE0970
:10033800BF09BC0A0319BD0A0319BE0A0319BF0A7B
:100348000130C0004008C2060030C6000030C500B9
:100358000030C4000030C3003B083A0439043804B4
:100368000319F129C101C10ABB1BC6290130B835DF
:10037800B90DBA0DBB0D890BBB290130C00040086F
:10038800C107B8290130C335C40DC50DC60D890B89
:10039800C7293B083F02031DDB293A083E02031D1B
:1003A800DB2939083D02031DDB2938083C02031C00
:1003B800E6293808BC023908BD3B3A08BE3B3B0871
:1003C800BF3B43140130BB36BA0CB90CB80C890BCF
:1003D800E7290130C102031DC62942080319FF2974
:1003E800C309C409C509C609C30A0319C40A0319FC
:1003F800C50A0319C60A4608BB004508BA004408DE
:10040800B9004308B80008007E01CE0114307D0110
:10041800CB000F307E01A500400147084101C00014
:10042800400148084101C100400149084101C2009A
:1004380040014A084101C3000430C035C10DC20D56
:10044800C30D890B212A43084001BB004101420822
:100458004001BA00410141084001B900410140088A
:100468004001B80047084101C40040014808410163
:10047800C500400149084101C60040014A08410140
:10048800C7000430C435C50DC60DC70D890B462AF3
:100498000030C8004830C900E830CA000130CB003D
:1004A8004408C8024508C93B4608CA3B4708CB3B35
:1004B8004B084001BF0041014A084001BE0041010C
:1004C80049084001BD00410148084001BC00813194
:1004D8008621400139084101D10040013808410115
:1004E800D000500842019B000B178B17A6309E00C6
:1004F80090309D009F014E01991608007308031D56
:100508007308031D8B2A71088331062308007308BA
:10051800033E86008701160001040319AE2A7308FA
:10052800033E86008701403FF400413FF500730A0F
:1005380086008701403FF600413FF7007708803A80
:10054800F8007508803A7802031DAC2A7408760210
:1005580003180800730A86008701013081074131BA
:100568000318810A08004001AA002608AC002508E3
:10057800AB00CB01CC012B0884002C0885001200AD
:100588000319D82A2B30A8002808F9002708A90041
:100598002908FA002A0880314F2082317908400161
:1005A800CB077A08CC3DBF2A4C08A6004B08A5000B
:1005B800080010304001940092010030CA00013058
:1005C800C900C230C8000030C70082310822823119
:1005D80031304001B8008330B9008031ED208231DC
:1005E800F42A2F30FD007D084001B1002E08A60036
:1005F8002D08A5003130FD007D08A70000308231AC
:10060800B7220800F000263042019E009D177008AE
:100618009A009E1C0D2B9E10080041019D18112B5D
:100628001C08F200F3017208F0007308F1000800DA
:1006380041019D181C2B1B08F200F3017208F00001
:100648007308F1000800640080010131890B282B30
:100658000034700842019A000800433431340034F1
:0606680042011908080020
:020000040001F9
:0A000E008C3FFF3FDF3FFF3FFF3F45
:00000001FF
